{
  "address": "0xe713d73850261d22713F995C1cf021274A224b82",
  "abi": [
    {
      "inputs": [
        {
          "internalType": "contract DappToken",
          "name": "_dappToken",
          "type": "address"
        },
        {
          "internalType": "contract LPToken",
          "name": "_lpToken",
          "type": "address"
        }
      ],
      "stateMutability": "nonpayable",
      "type": "constructor"
    },
    {
      "anonymous": false,
      "inputs": [
        {
          "indexed": true,
          "internalType": "address",
          "name": "user",
          "type": "address"
        },
        {
          "indexed": false,
          "internalType": "uint256",
          "name": "amount",
          "type": "uint256"
        }
      ],
      "name": "Deposit",
      "type": "event"
    },
    {
      "anonymous": false,
      "inputs": [
        {
          "indexed": true,
          "internalType": "address",
          "name": "user",
          "type": "address"
        },
        {
          "indexed": false,
          "internalType": "uint256",
          "name": "amount",
          "type": "uint256"
        }
      ],
      "name": "RewardsClaimed",
      "type": "event"
    },
    {
      "anonymous": false,
      "inputs": [],
      "name": "RewardsDistributed",
      "type": "event"
    },
    {
      "anonymous": false,
      "inputs": [
        {
          "indexed": true,
          "internalType": "address",
          "name": "user",
          "type": "address"
        },
        {
          "indexed": false,
          "internalType": "uint256",
          "name": "amount",
          "type": "uint256"
        }
      ],
      "name": "Withdraw",
      "type": "event"
    },
    {
      "inputs": [],
      "name": "REWARD_PER_BLOCK",
      "outputs": [
        {
          "internalType": "uint256",
          "name": "",
          "type": "uint256"
        }
      ],
      "stateMutability": "view",
      "type": "function"
    },
    {
      "inputs": [
        {
          "internalType": "address",
          "name": "",
          "type": "address"
        }
      ],
      "name": "checkpoints",
      "outputs": [
        {
          "internalType": "uint256",
          "name": "",
          "type": "uint256"
        }
      ],
      "stateMutability": "view",
      "type": "function"
    },
    {
      "inputs": [],
      "name": "claimRewards",
      "outputs": [],
      "stateMutability": "nonpayable",
      "type": "function"
    },
    {
      "inputs": [],
      "name": "dappToken",
      "outputs": [
        {
          "internalType": "contract DappToken",
          "name": "",
          "type": "address"
        }
      ],
      "stateMutability": "view",
      "type": "function"
    },
    {
      "inputs": [
        {
          "internalType": "uint256",
          "name": "_amount",
          "type": "uint256"
        }
      ],
      "name": "deposit",
      "outputs": [],
      "stateMutability": "nonpayable",
      "type": "function"
    },
    {
      "inputs": [],
      "name": "distributeRewardsAll",
      "outputs": [],
      "stateMutability": "nonpayable",
      "type": "function"
    },
    {
      "inputs": [
        {
          "internalType": "address",
          "name": "",
          "type": "address"
        }
      ],
      "name": "hasStaked",
      "outputs": [
        {
          "internalType": "bool",
          "name": "",
          "type": "bool"
        }
      ],
      "stateMutability": "view",
      "type": "function"
    },
    {
      "inputs": [
        {
          "internalType": "address",
          "name": "",
          "type": "address"
        }
      ],
      "name": "isStaking",
      "outputs": [
        {
          "internalType": "bool",
          "name": "",
          "type": "bool"
        }
      ],
      "stateMutability": "view",
      "type": "function"
    },
    {
      "inputs": [],
      "name": "lpToken",
      "outputs": [
        {
          "internalType": "contract LPToken",
          "name": "",
          "type": "address"
        }
      ],
      "stateMutability": "view",
      "type": "function"
    },
    {
      "inputs": [],
      "name": "name",
      "outputs": [
        {
          "internalType": "string",
          "name": "",
          "type": "string"
        }
      ],
      "stateMutability": "view",
      "type": "function"
    },
    {
      "inputs": [],
      "name": "owner",
      "outputs": [
        {
          "internalType": "address",
          "name": "",
          "type": "address"
        }
      ],
      "stateMutability": "view",
      "type": "function"
    },
    {
      "inputs": [
        {
          "internalType": "address",
          "name": "",
          "type": "address"
        }
      ],
      "name": "pendingRewards",
      "outputs": [
        {
          "internalType": "uint256",
          "name": "",
          "type": "uint256"
        }
      ],
      "stateMutability": "view",
      "type": "function"
    },
    {
      "inputs": [
        {
          "internalType": "uint256",
          "name": "",
          "type": "uint256"
        }
      ],
      "name": "stakers",
      "outputs": [
        {
          "internalType": "address",
          "name": "",
          "type": "address"
        }
      ],
      "stateMutability": "view",
      "type": "function"
    },
    {
      "inputs": [
        {
          "internalType": "address",
          "name": "",
          "type": "address"
        }
      ],
      "name": "stakingBalance",
      "outputs": [
        {
          "internalType": "uint256",
          "name": "",
          "type": "uint256"
        }
      ],
      "stateMutability": "view",
      "type": "function"
    },
    {
      "inputs": [],
      "name": "totalStakingBalance",
      "outputs": [
        {
          "internalType": "uint256",
          "name": "",
          "type": "uint256"
        }
      ],
      "stateMutability": "view",
      "type": "function"
    },
    {
      "inputs": [],
      "name": "withdraw",
      "outputs": [],
      "stateMutability": "nonpayable",
      "type": "function"
    }
  ],
  "transactionHash": "0x555765e6ae881965ca8725571c137ded1ddd381ddad697e42455760cc92a9225",
  "args": [
    "0x837e06427596d85765179F014DefE20f4F2A7f9D",
    "0xCb0016DB25F4e6B4B68A3bDD5C1531B0c5162419"
  ],
  "numDeployments": 1,
  "solcInputHash": "77d61cc2935397c3bb9dd55e75ba9e57",
  "bytecode": "0x60c0604052601760809081527f50726f706f7274696f6e616c20546f6b656e204661726d00000000000000000060a0526000906200003e908262000156565b503480156200004c57600080fd5b5060405162000e3338038062000e338339810160408190526200006f916200023b565b600280546001600160a01b039384166001600160a01b03199182161790915560038054929093169181169190911790915560018054909116331790556200027a565b634e487b7160e01b600052604160045260246000fd5b600181811c90821680620000dc57607f821691505b602082108103620000fd57634e487b7160e01b600052602260045260246000fd5b50919050565b601f8211156200015157600081815260208120601f850160051c810160208610156200012c5750805b601f850160051c820191505b818110156200014d5782815560010162000138565b5050505b505050565b81516001600160401b03811115620001725762000172620000b1565b6200018a81620001838454620000c7565b8462000103565b602080601f831160018114620001c25760008415620001a95750858301515b600019600386901b1c1916600185901b1785556200014d565b600085815260208120601f198616915b82811015620001f357888601518255948401946001909101908401620001d2565b5085821015620002125787850151600019600388901b60f8161c191681555b5050505050600190811b01905550565b6001600160a01b03811681146200023857600080fd5b50565b600080604083850312156200024f57600080fd5b82516200025c8162000222565b60208401519092506200026f8162000222565b809150509250929050565b610ba9806200028a6000396000f3fe608060405234801561001057600080fd5b50600436106101005760003560e01c80638da5cb5b11610097578063db03e22711610066578063db03e2271461024c578063dbb51d6e14610254578063e766c83514610274578063fd5e6dd11461027d57600080fd5b80638da5cb5b146101f4578063975532dc14610207578063b6b55f2514610216578063c93c8f341461022957600080fd5b806345bc78ab116100d357806345bc78ab146101635780635eb186f8146101835780635fcbd285146101ae5780636f49712b146101c157600080fd5b806306fdde031461010557806331d7a26214610123578063372500ab146101515780633ccfd60b1461015b575b600080fd5b61010d610290565b60405161011a91906109d6565b60405180910390f35b610143610131366004610a24565b60086020526000908152604090205481565b60405190815260200161011a565b61015961031e565b005b610159610425565b610143610171366004610a24565b60066020526000908152604090205481565b600254610196906001600160a01b031681565b6040516001600160a01b03909116815260200161011a565b600354610196906001600160a01b031681565b6101e46101cf366004610a24565b600a6020526000908152604090205460ff1681565b604051901515815260200161011a565b600154610196906001600160a01b031681565b610143670de0b6b3a764000081565b610159610224366004610a54565b6105c0565b6101e4610237366004610a24565b60096020526000908152604090205460ff1681565b6101596107b4565b610143610262366004610a24565b60076020526000908152604090205481565b61014360045481565b61019661028b366004610a54565b6108a8565b6000805461029d90610a6d565b80601f01602080910402602001604051908101604052809291908181526020018280546102c990610a6d565b80156103165780601f106102eb57610100808354040283529160200191610316565b820191906000526020600020905b8154815290600101906020018083116102f957829003601f168201915b505050505081565b33600090815260086020526040902054806103755760405162461bcd60e51b81526020600482015260126024820152714e6f2070656e64696e67207265776172647360701b60448201526064015b60405180910390fd5b336000818152600860205260408082209190915560025490516340c10f1960e01b81526004810192909252602482018390526001600160a01b0316906340c10f1990604401600060405180830381600087803b1580156103d457600080fd5b505af11580156103e8573d6000803e3d6000fd5b50506040518381523392507ffc30cddea38e2bf4d6ea7d3f9ed3b6ad7f176419f4963bd81318067a4aee73fe91506020015b60405180910390a250565b336000908152600a602052604090205460ff1661047a5760405162461bcd60e51b815260206004820152601360248201527255736572206973206e6f74207374616b696e6760681b604482015260640161036c565b33600090815260066020526040902054806104ce5760405162461bcd60e51b815260206004820152601460248201527305374616b696e672062616c616e636520697320360641b604482015260640161036c565b6104d7336108d2565b336000908152600660205260408120819055600480548392906104fb908490610abd565b9091555050336000818152600a602052604090819020805460ff19169055600354905163a9059cbb60e01b81526004810192909252602482018390526001600160a01b03169063a9059cbb906044016020604051808303816000875af1158015610569573d6000803e3d6000fd5b505050506040513d601f19601f8201168201806040525081019061058d9190610ad6565b5060405181815233907f884edad9ce6fa2440d8a54cc123490eb96d2768479d49ff9c7366125a94243649060200161041a565b600081116106105760405162461bcd60e51b815260206004820152601d60248201527f416d6f756e74206d7573742062652067726561746572207468616e2030000000604482015260640161036c565b6003546040516323b872dd60e01b8152336004820152306024820152604481018390526001600160a01b03909116906323b872dd906064016020604051808303816000875af1158015610667573d6000803e3d6000fd5b505050506040513d601f19601f8201168201806040525081019061068b9190610ad6565b50610695336108d2565b33600090815260066020526040812080548392906106b4908490610af8565b9250508190555080600460008282546106cd9190610af8565b90915550503360009081526009602052604090205460ff16610744576005805460018181019092557f036b6384b5eca791c62761152d0c79bb0604c104a5fb6f4eb0703f3154bb3db00180546001600160a01b031916339081179091556000908152600960205260409020805460ff191690911790555b336000908152600a60209081526040808320805460ff1916600117905560079091528120549003610782573360009081526007602052604090204390555b60405181815233907fe1fffcc4923d04b559f4d29a8bfc6cda04eb5b0d3c460751c2402c5c5cc9109c9060200161041a565b6001546001600160a01b0316331461080e5760405162461bcd60e51b815260206004820152601960248201527f4f6e6c79206f776e65722063616e206469737472696275746500000000000000604482015260640161036c565b60005b60055481101561087c5760006005828154811061083057610830610b0b565b60009182526020808320909101546001600160a01b0316808352600a90915260409091205490915060ff161561086957610869816108d2565b508061087481610b21565b915050610811565b506040517fefea7889cd26c56b4174d211c6b03e98a905c56c27fbd926d308e082727de59d90600090a1565b600581815481106108b857600080fd5b6000918252602090912001546001600160a01b0316905081565b6001600160a01b0381166000908152600760205260409020544381811115806108fb5750600454155b1561090557505050565b60006109118383610abd565b6001600160a01b0385166000908152600660205260408120549192508190036109565750506001600160a01b0390921660009081526007602052604090209190915550565b6004546000908261096f85670de0b6b3a7640000610b3a565b6109799190610b3a565b6109839190610b51565b6001600160a01b0387166000908152600860205260408120805492935083929091906109b0908490610af8565b909155505050506001600160a01b03939093166000908152600760205260409020555050565b600060208083528351808285015260005b81811015610a03578581018301518582016040015282016109e7565b506000604082860101526040601f19601f8301168501019250505092915050565b600060208284031215610a3657600080fd5b81356001600160a01b0381168114610a4d57600080fd5b9392505050565b600060208284031215610a6657600080fd5b5035919050565b600181811c90821680610a8157607f821691505b602082108103610aa157634e487b7160e01b600052602260045260246000fd5b50919050565b634e487b7160e01b600052601160045260246000fd5b81810381811115610ad057610ad0610aa7565b92915050565b600060208284031215610ae857600080fd5b81518015158114610a4d57600080fd5b80820180821115610ad057610ad0610aa7565b634e487b7160e01b600052603260045260246000fd5b600060018201610b3357610b33610aa7565b5060010190565b8082028115828204841417610ad057610ad0610aa7565b600082610b6e57634e487b7160e01b600052601260045260246000fd5b50049056fea264697066735822122067503ea1649e5077c2949b4874488893f2ee3a6c0f6690778b8e0d92c05323cf64736f6c63430008140033",
  "devdoc": {
    "kind": "dev",
    "methods": {
      "deposit(uint256)": {
        "params": {
          "_amount": "Cantidad de tokens LP a depositar."
        }
      }
    },
    "title": "Proportional Token Farm",
    "version": 1
  },
  "userdoc": {
    "kind": "user",
    "methods": {
      "claimRewards()": {
        "notice": "Reclama recompensas pendientes."
      },
      "deposit(uint256)": {
        "notice": "Deposita tokens LP para staking."
      },
      "distributeRewardsAll()": {
        "notice": "Distribuye recompensas a todos los usuarios en staking."
      },
      "withdraw()": {
        "notice": "Retira todos los tokens LP en staking."
      }
    },
    "notice": "Una granja de staking donde las recompensas se distribuyen proporcionalmente al total stakeado.",
    "version": 1
  },
  "storageLayout": {
    "storage": [
      {
        "astId": 1019,
        "contract": "contracts/TokenFarm.sol:TokenFarm",
        "label": "name",
        "offset": 0,
        "slot": "0",
        "type": "t_string_storage"
      },
      {
        "astId": 1021,
        "contract": "contracts/TokenFarm.sol:TokenFarm",
        "label": "owner",
        "offset": 0,
        "slot": "1",
        "type": "t_address"
      },
      {
        "astId": 1024,
        "contract": "contracts/TokenFarm.sol:TokenFarm",
        "label": "dappToken",
        "offset": 0,
        "slot": "2",
        "type": "t_contract(DappToken)972"
      },
      {
        "astId": 1027,
        "contract": "contracts/TokenFarm.sol:TokenFarm",
        "label": "lpToken",
        "offset": 0,
        "slot": "3",
        "type": "t_contract(LPToken)1011"
      },
      {
        "astId": 1032,
        "contract": "contracts/TokenFarm.sol:TokenFarm",
        "label": "totalStakingBalance",
        "offset": 0,
        "slot": "4",
        "type": "t_uint256"
      },
      {
        "astId": 1035,
        "contract": "contracts/TokenFarm.sol:TokenFarm",
        "label": "stakers",
        "offset": 0,
        "slot": "5",
        "type": "t_array(t_address)dyn_storage"
      },
      {
        "astId": 1039,
        "contract": "contracts/TokenFarm.sol:TokenFarm",
        "label": "stakingBalance",
        "offset": 0,
        "slot": "6",
        "type": "t_mapping(t_address,t_uint256)"
      },
      {
        "astId": 1043,
        "contract": "contracts/TokenFarm.sol:TokenFarm",
        "label": "checkpoints",
        "offset": 0,
        "slot": "7",
        "type": "t_mapping(t_address,t_uint256)"
      },
      {
        "astId": 1047,
        "contract": "contracts/TokenFarm.sol:TokenFarm",
        "label": "pendingRewards",
        "offset": 0,
        "slot": "8",
        "type": "t_mapping(t_address,t_uint256)"
      },
      {
        "astId": 1051,
        "contract": "contracts/TokenFarm.sol:TokenFarm",
        "label": "hasStaked",
        "offset": 0,
        "slot": "9",
        "type": "t_mapping(t_address,t_bool)"
      },
      {
        "astId": 1055,
        "contract": "contracts/TokenFarm.sol:TokenFarm",
        "label": "isStaking",
        "offset": 0,
        "slot": "10",
        "type": "t_mapping(t_address,t_bool)"
      }
    ],
    "types": {
      "t_address": {
        "encoding": "inplace",
        "label": "address",
        "numberOfBytes": "20"
      },
      "t_array(t_address)dyn_storage": {
        "base": "t_address",
        "encoding": "dynamic_array",
        "label": "address[]",
        "numberOfBytes": "32"
      },
      "t_bool": {
        "encoding": "inplace",
        "label": "bool",
        "numberOfBytes": "1"
      },
      "t_contract(DappToken)972": {
        "encoding": "inplace",
        "label": "contract DappToken",
        "numberOfBytes": "20"
      },
      "t_contract(LPToken)1011": {
        "encoding": "inplace",
        "label": "contract LPToken",
        "numberOfBytes": "20"
      },
      "t_mapping(t_address,t_bool)": {
        "encoding": "mapping",
        "key": "t_address",
        "label": "mapping(address => bool)",
        "numberOfBytes": "32",
        "value": "t_bool"
      },
      "t_mapping(t_address,t_uint256)": {
        "encoding": "mapping",
        "key": "t_address",
        "label": "mapping(address => uint256)",
        "numberOfBytes": "32",
        "value": "t_uint256"
      },
      "t_string_storage": {
        "encoding": "bytes",
        "label": "string",
        "numberOfBytes": "32"
      },
      "t_uint256": {
        "encoding": "inplace",
        "label": "uint256",
        "numberOfBytes": "32"
      }
    }
  }
}